{
  "contractName": "CitizensUnited",
  "abi": [
    {
      "inputs": [
        {
          "name": "_newMessage",
          "type": "string"
        }
      ],
      "payable": true,
      "type": "function",
      "constant": false,
      "name": "setMessage",
      "outputs": []
    },
    {
      "payable": false,
      "type": "function",
      "constant": true,
      "inputs": [],
      "name": "tsar",
      "outputs": [
        {
          "name": "",
          "type": "address"
        }
      ]
    },
    {
      "constant": false,
      "inputs": [],
      "name": "cedePower",
      "outputs": [
        {
          "name": "",
          "type": "string"
        }
      ],
      "payable": false,
      "type": "function"
    },
    {
      "inputs": [],
      "payable": false,
      "type": "function",
      "constant": true,
      "name": "costOfSpeech",
      "outputs": [
        {
          "name": "",
          "type": "uint256"
        }
      ]
    },
    {
      "payable": false,
      "type": "function",
      "constant": true,
      "inputs": [],
      "name": "message",
      "outputs": [
        {
          "name": "",
          "type": "string"
        }
      ]
    },
    {
      "inputs": [],
      "payable": false,
      "type": "constructor"
    },
    {
      "payable": true,
      "type": "fallback"
    }
  ],
  "bytecode": "0x60606040526020604051908101604052600081526001908051610026929160200190610059565b506000600255341561003757600080fd5b5b60008054600160a060020a03191633600160a060020a03161790555b6100f9565b828054600181600116156101000203166002900490600052602060002090601f016020900481019282601f1061009a57805160ff19168380011785556100c7565b828001600101855582156100c7579182015b828111156100c75782518255916020019190600101906100ac565b5b506100d49291506100d8565b5090565b6100f691905b808211156100d457600081556001016100de565b5090565b90565b610468806101086000396000f3006060604052361561006a5763ffffffff7c0100000000000000000000000000000000000000000000000000000000600035041663368b87728114610072578063491ac108146100ba578063a22432fa146100e9578063ae1157b8146100fe578063e21f37ce14610123575b5b600080fd5b005b61007060046024813581810190830135806020601f820181900481020160405190810160405281815292919060208401838380828437509496506101ae95505050505050565b005b34156100c557600080fd5b6100cd610277565b604051600160a060020a03909116815260200160405180910390f35b34156100f457600080fd5b610070610286565b005b341561010957600080fd5b6101116102f8565b60405190815260200160405180910390f35b341561012e57600080fd5b6101366102fe565b60405160208082528190810183818151815260200191508051906020019080838360005b838110156101735780820151818401525b60200161015a565b50505050905090810190601f1680156101a05780820380516001836020036101000a031916815260200191505b509250505060405180910390f35b60005433600160a060020a03908116911614806101cc575060025434115b15156101d757600080fd5b60018180516101ea92916020019061039c565b50600160a060020a03308116316002556000543382169116146102735733600160a060020a03166108fc3430600160a060020a031631039081150290604051600060405180830381858888f19350505050151561024657600080fd5b6000805473ffffffffffffffffffffffffffffffffffffffff191633600160a060020a0316179055346002555b5b50565b600054600160a060020a031681565b60005433600160a060020a039081169116146102a157600080fd5b6000805473ffffffffffffffffffffffffffffffffffffffff19168155600281905530600160a060020a03163180156108fc0290604051600060405180830381858888f1935050505015156102f557600080fd5b5b565b60025481565b60018054600181600116156101000203166002900480601f0160208091040260200160405190810160405280929190818152602001828054600181600116156101000203166002900480156103945780601f1061036957610100808354040283529160200191610394565b820191906000526020600020905b81548152906001019060200180831161037757829003601f168201915b505050505081565b828054600181600116156101000203166002900490600052602060002090601f016020900481019282601f106103dd57805160ff191683800117855561040a565b8280016001018555821561040a579182015b8281111561040a5782518255916020019190600101906103ef565b5b5061041792915061041b565b5090565b61043991905b808211156104175760008155600101610421565b5090565b905600a165627a7a72305820ea6f96ce4508e2483c34c04a0aab508e775a8117c324ca72d2a855f05abd80de0029",
  "source": "pragma solidity ^0.4.15;\n\ncontract CitizensUnited {\n    address public tsar;\n    string public message = \"\";\n    uint public costOfSpeech = 0;\n\n    function CitizensUnited() public {\n        tsar = msg.sender;\n    }\n\n    function setMessage(string _newMessage) public payable {\n        // Require that the message sender is the current tsar,\n        // or the message value is higher than the current contract balance\n        require(\n            msg.sender == tsar ||\n            msg.value > costOfSpeech\n        );\n\n        message = _newMessage;\n        costOfSpeech = this.balance;\n\n        if (msg.sender != tsar) {\n            msg.sender.transfer(this.balance - msg.value);\n\n            tsar = msg.sender;\n            costOfSpeech = msg.value;\n        }\n    }\n\n    function cedePower() public {\n        require(msg.sender == tsar);\n\n        // Reset tsar address\n        tsar = address(0);\n\n        // Free speech!\n        costOfSpeech = 0;\n\n        tsar.transfer(this.balance);\n    }\n\n    function() public payable {\n        revert();\n    }\n}\n",
  "sourcePath": "/Users/gm-alex/dev/CU-eth/contracts/CitizensUnited.sol",
  "schemaVersion": "1.0.0",
  "updatedAt": "2017-10-05T20:40:19.277Z"
}