{
  "contractName": "CitizensUnited",
  "abi": [
    {
      "inputs": [
        {
          "name": "_newMessage",
          "type": "string"
        }
      ],
      "payable": true,
      "type": "function",
      "constant": false,
      "name": "setMessage",
      "outputs": []
    },
    {
      "payable": false,
      "type": "function",
      "constant": true,
      "inputs": [],
      "name": "tsar",
      "outputs": [
        {
          "name": "",
          "type": "address"
        }
      ]
    },
    {
      "constant": true,
      "inputs": [],
      "name": "message",
      "outputs": [
        {
          "name": "",
          "type": "string"
        }
      ],
      "payable": false,
      "type": "function"
    },
    {
      "inputs": [],
      "payable": false,
      "type": "constructor"
    },
    {
      "payable": true,
      "type": "fallback"
    }
  ],
  "bytecode": "0x60606040526020604051908101604052600081526002908051610026929160200190610054565b50341561003257600080fd5b5b60008054600160a060020a03191633600160a060020a03161790555b6100f4565b828054600181600116156101000203166002900490600052602060002090601f016020900481019282601f1061009557805160ff19168380011785556100c2565b828001600101855582156100c2579182015b828111156100c25782518255916020019190600101906100a7565b5b506100cf9291506100d3565b5090565b6100f191905b808211156100cf57600081556001016100d9565b5090565b90565b610389806101036000396000f300606060405236156100545763ffffffff7c0100000000000000000000000000000000000000000000000000000000600035041663368b8772811461005c578063491ac108146100a4578063e21f37ce146100e0575b5b600080fd5b005b61005a60046024813581810190830135806020601f8201819004810201604051908101604052818152929190602084018383808284375094965061016b95505050505050565b005b34156100af57600080fd5b6100b7610203565b60405173ffffffffffffffffffffffffffffffffffffffff909116815260200160405180910390f35b34156100eb57600080fd5b6100f361021f565b60405160208082528190810183818151815260200191508051906020019080838360005b838110156101305780820151818401525b602001610117565b50505050905090810190601f16801561015d5780820380516001836020036101000a031916815260200191505b509250505060405180910390f35b6001543373ffffffffffffffffffffffffffffffffffffffff908116911614806101ab57503073ffffffffffffffffffffffffffffffffffffffff163134115b15156101b657600080fd5b60028180516101c99291602001906102bd565b506001805473ffffffffffffffffffffffffffffffffffffffff19163373ffffffffffffffffffffffffffffffffffffffff161790555b50565b60015473ffffffffffffffffffffffffffffffffffffffff1681565b60028054600181600116156101000203166002900480601f0160208091040260200160405190810160405280929190818152602001828054600181600116156101000203166002900480156102b55780601f1061028a576101008083540402835291602001916102b5565b820191906000526020600020905b81548152906001019060200180831161029857829003601f168201915b505050505081565b828054600181600116156101000203166002900490600052602060002090601f016020900481019282601f106102fe57805160ff191683800117855561032b565b8280016001018555821561032b579182015b8281111561032b578251825591602001919060010190610310565b5b5061033892915061033c565b5090565b61035a91905b808211156103385760008155600101610342565b5090565b905600a165627a7a72305820ec42e9dcadddfc132af230f3ab4ae92ca8c4804f3218430ef76cfa88cb275b640029",
  "source": "pragma solidity ^0.4.15;\n\ncontract CitizensUnited {\n    address owner;\n\n    address public tsar;\n    string public message = \"\";\n\n    function CitizensUnited() {\n        owner = msg.sender;\n    }\n\n    function setMessage(string _newMessage) payable {\n        // Require that the message sender is the current tsar,\n        // or the message value is higher than the current contract balance\n        require(\n            msg.sender == tsar ||\n            msg.value > this.balance\n        );\n\n        message = _newMessage;\n        tsar = msg.sender;\n    }\n\n    function() payable {\n        revert();\n    }\n}\n",
  "sourcePath": "/Users/gm-alex/dev/citizens-united-ethereum/contracts/CitizensUnited.sol",
  "schemaVersion": "1.0.0",
  "updatedAt": "2017-10-04T20:37:11.978Z"
}